{
	"data": {
		"bytecode": {
			"linkReferences": {},
			"object": "608060405234801561000f575f80fd5b5061091b8061001d5f395ff3fe608060405234801561000f575f80fd5b506004361061004a575f3560e01c8063052cbab61461004e5780637316bdcd1461006c578063bca98e7714610088578063d0d0f10d146100ba575b5f80fd5b6100566100d6565b6040516100639190610341565b60405180910390f35b610086600480360381019061008191906104a7565b6100f9565b005b6100a2600480360381019061009d9190610518565b610228565b6040516100b1939291906105d7565b60405180910390f35b6100d460048036038101906100cf9190610518565b6102ff565b005b5f8054906101000a900473ffffffffffffffffffffffffffffffffffffffff1681565b60405180606001604052803373ffffffffffffffffffffffffffffffffffffffff1681526020018281526020016001151581525060015f3373ffffffffffffffffffffffffffffffffffffffff1673ffffffffffffffffffffffffffffffffffffffff1681526020019081526020015f205f820151815f015f6101000a81548173ffffffffffffffffffffffffffffffffffffffff021916908373ffffffffffffffffffffffffffffffffffffffff16021790555060208201518160010190816101c39190610816565b506040820151816002015f6101000a81548160ff021916908315150217905550905050335f806101000a81548173ffffffffffffffffffffffffffffffffffffffff021916908373ffffffffffffffffffffffffffffffffffffffff16021790555050565b6001602052805f5260405f205f91509050805f015f9054906101000a900473ffffffffffffffffffffffffffffffffffffffff169080600101805461026c90610640565b80601f016020809104026020016040519081016040528092919081815260200182805461029890610640565b80156102e35780601f106102ba576101008083540402835291602001916102e3565b820191905f5260205f20905b8154815290600101906020018083116102c657829003601f168201915b505050505090806002015f9054906101000a900460ff16905083565b50565b5f73ffffffffffffffffffffffffffffffffffffffff82169050919050565b5f61032b82610302565b9050919050565b61033b81610321565b82525050565b5f6020820190506103545f830184610332565b92915050565b5f604051905090565b5f80fd5b5f80fd5b5f80fd5b5f80fd5b5f601f19601f8301169050919050565b7f4e487b71000000000000000000000000000000000000000000000000000000005f52604160045260245ffd5b6103b982610373565b810181811067ffffffffffffffff821117156103d8576103d7610383565b5b80604052505050565b5f6103ea61035a565b90506103f682826103b0565b919050565b5f67ffffffffffffffff82111561041557610414610383565b5b61041e82610373565b9050602081019050919050565b828183375f83830152505050565b5f61044b610446846103fb565b6103e1565b9050828152602081018484840111156104675761046661036f565b5b61047284828561042b565b509392505050565b5f82601f83011261048e5761048d61036b565b5b813561049e848260208601610439565b91505092915050565b5f602082840312156104bc576104bb610363565b5b5f82013567ffffffffffffffff8111156104d9576104d8610367565b5b6104e58482850161047a565b91505092915050565b6104f781610321565b8114610501575f80fd5b50565b5f81359050610512816104ee565b92915050565b5f6020828403121561052d5761052c610363565b5b5f61053a84828501610504565b91505092915050565b5f81519050919050565b5f82825260208201905092915050565b5f5b8381101561057a57808201518184015260208101905061055f565b5f8484015250505050565b5f61058f82610543565b610599818561054d565b93506105a981856020860161055d565b6105b281610373565b840191505092915050565b5f8115159050919050565b6105d1816105bd565b82525050565b5f6060820190506105ea5f830186610332565b81810360208301526105fc8185610585565b905061060b60408301846105c8565b949350505050565b7f4e487b71000000000000000000000000000000000000000000000000000000005f52602260045260245ffd5b5f600282049050600182168061065757607f821691505b60208210810361066a57610669610613565b5b50919050565b5f819050815f5260205f209050919050565b5f6020601f8301049050919050565b5f82821b905092915050565b5f600883026106cc7fffffffffffffffffffffffffffffffffffffffffffffffffffffffffffffffff82610691565b6106d68683610691565b95508019841693508086168417925050509392505050565b5f819050919050565b5f819050919050565b5f61071a610715610710846106ee565b6106f7565b6106ee565b9050919050565b5f819050919050565b61073383610700565b61074761073f82610721565b84845461069d565b825550505050565b5f90565b61075b61074f565b61076681848461072a565b505050565b5b818110156107895761077e5f82610753565b60018101905061076c565b5050565b601f8211156107ce5761079f81610670565b6107a884610682565b810160208510156107b7578190505b6107cb6107c385610682565b83018261076b565b50505b505050565b5f82821c905092915050565b5f6107ee5f19846008026107d3565b1980831691505092915050565b5f61080683836107df565b9150826002028217905092915050565b61081f82610543565b67ffffffffffffffff81111561083857610837610383565b5b6108428254610640565b61084d82828561078d565b5f60209050601f83116001811461087e575f841561086c578287015190505b61087685826107fb565b8655506108dd565b601f19841661088c86610670565b5f5b828110156108b35784890151825560018201915060208501945060208101905061088e565b868310156108d057848901516108cc601f8916826107df565b8355505b6001600288020188555050505b50505050505056fea26469706673582212209f2e1665909b520298bb29673b7310ea611935e154b997623605a4240a581a7064736f6c63430008160033",
			"opcodes": "PUSH1 0x80 PUSH1 0x40 MSTORE CALLVALUE DUP1 ISZERO PUSH2 0xF JUMPI PUSH0 DUP1 REVERT JUMPDEST POP PUSH2 0x91B DUP1 PUSH2 0x1D PUSH0 CODECOPY PUSH0 RETURN INVALID PUSH1 0x80 PUSH1 0x40 MSTORE CALLVALUE DUP1 ISZERO PUSH2 0xF JUMPI PUSH0 DUP1 REVERT JUMPDEST POP PUSH1 0x4 CALLDATASIZE LT PUSH2 0x4A JUMPI PUSH0 CALLDATALOAD PUSH1 0xE0 SHR DUP1 PUSH4 0x52CBAB6 EQ PUSH2 0x4E JUMPI DUP1 PUSH4 0x7316BDCD EQ PUSH2 0x6C JUMPI DUP1 PUSH4 0xBCA98E77 EQ PUSH2 0x88 JUMPI DUP1 PUSH4 0xD0D0F10D EQ PUSH2 0xBA JUMPI JUMPDEST PUSH0 DUP1 REVERT JUMPDEST PUSH2 0x56 PUSH2 0xD6 JUMP JUMPDEST PUSH1 0x40 MLOAD PUSH2 0x63 SWAP2 SWAP1 PUSH2 0x341 JUMP JUMPDEST PUSH1 0x40 MLOAD DUP1 SWAP2 SUB SWAP1 RETURN JUMPDEST PUSH2 0x86 PUSH1 0x4 DUP1 CALLDATASIZE SUB DUP2 ADD SWAP1 PUSH2 0x81 SWAP2 SWAP1 PUSH2 0x4A7 JUMP JUMPDEST PUSH2 0xF9 JUMP JUMPDEST STOP JUMPDEST PUSH2 0xA2 PUSH1 0x4 DUP1 CALLDATASIZE SUB DUP2 ADD SWAP1 PUSH2 0x9D SWAP2 SWAP1 PUSH2 0x518 JUMP JUMPDEST PUSH2 0x228 JUMP JUMPDEST PUSH1 0x40 MLOAD PUSH2 0xB1 SWAP4 SWAP3 SWAP2 SWAP1 PUSH2 0x5D7 JUMP JUMPDEST PUSH1 0x40 MLOAD DUP1 SWAP2 SUB SWAP1 RETURN JUMPDEST PUSH2 0xD4 PUSH1 0x4 DUP1 CALLDATASIZE SUB DUP2 ADD SWAP1 PUSH2 0xCF SWAP2 SWAP1 PUSH2 0x518 JUMP JUMPDEST PUSH2 0x2FF JUMP JUMPDEST STOP JUMPDEST PUSH0 DUP1 SLOAD SWAP1 PUSH2 0x100 EXP SWAP1 DIV PUSH20 0xFFFFFFFFFFFFFFFFFFFFFFFFFFFFFFFFFFFFFFFF AND DUP2 JUMP JUMPDEST PUSH1 0x40 MLOAD DUP1 PUSH1 0x60 ADD PUSH1 0x40 MSTORE DUP1 CALLER PUSH20 0xFFFFFFFFFFFFFFFFFFFFFFFFFFFFFFFFFFFFFFFF AND DUP2 MSTORE PUSH1 0x20 ADD DUP3 DUP2 MSTORE PUSH1 0x20 ADD PUSH1 0x1 ISZERO ISZERO DUP2 MSTORE POP PUSH1 0x1 PUSH0 CALLER PUSH20 0xFFFFFFFFFFFFFFFFFFFFFFFFFFFFFFFFFFFFFFFF AND PUSH20 0xFFFFFFFFFFFFFFFFFFFFFFFFFFFFFFFFFFFFFFFF AND DUP2 MSTORE PUSH1 0x20 ADD SWAP1 DUP2 MSTORE PUSH1 0x20 ADD PUSH0 KECCAK256 PUSH0 DUP3 ADD MLOAD DUP2 PUSH0 ADD PUSH0 PUSH2 0x100 EXP DUP2 SLOAD DUP2 PUSH20 0xFFFFFFFFFFFFFFFFFFFFFFFFFFFFFFFFFFFFFFFF MUL NOT AND SWAP1 DUP4 PUSH20 0xFFFFFFFFFFFFFFFFFFFFFFFFFFFFFFFFFFFFFFFF AND MUL OR SWAP1 SSTORE POP PUSH1 0x20 DUP3 ADD MLOAD DUP2 PUSH1 0x1 ADD SWAP1 DUP2 PUSH2 0x1C3 SWAP2 SWAP1 PUSH2 0x816 JUMP JUMPDEST POP PUSH1 0x40 DUP3 ADD MLOAD DUP2 PUSH1 0x2 ADD PUSH0 PUSH2 0x100 EXP DUP2 SLOAD DUP2 PUSH1 0xFF MUL NOT AND SWAP1 DUP4 ISZERO ISZERO MUL OR SWAP1 SSTORE POP SWAP1 POP POP CALLER PUSH0 DUP1 PUSH2 0x100 EXP DUP2 SLOAD DUP2 PUSH20 0xFFFFFFFFFFFFFFFFFFFFFFFFFFFFFFFFFFFFFFFF MUL NOT AND SWAP1 DUP4 PUSH20 0xFFFFFFFFFFFFFFFFFFFFFFFFFFFFFFFFFFFFFFFF AND MUL OR SWAP1 SSTORE POP POP JUMP JUMPDEST PUSH1 0x1 PUSH1 0x20 MSTORE DUP1 PUSH0 MSTORE PUSH1 0x40 PUSH0 KECCAK256 PUSH0 SWAP2 POP SWAP1 POP DUP1 PUSH0 ADD PUSH0 SWAP1 SLOAD SWAP1 PUSH2 0x100 EXP SWAP1 DIV PUSH20 0xFFFFFFFFFFFFFFFFFFFFFFFFFFFFFFFFFFFFFFFF AND SWAP1 DUP1 PUSH1 0x1 ADD DUP1 SLOAD PUSH2 0x26C SWAP1 PUSH2 0x640 JUMP JUMPDEST DUP1 PUSH1 0x1F ADD PUSH1 0x20 DUP1 SWAP2 DIV MUL PUSH1 0x20 ADD PUSH1 0x40 MLOAD SWAP1 DUP2 ADD PUSH1 0x40 MSTORE DUP1 SWAP3 SWAP2 SWAP1 DUP2 DUP2 MSTORE PUSH1 0x20 ADD DUP3 DUP1 SLOAD PUSH2 0x298 SWAP1 PUSH2 0x640 JUMP JUMPDEST DUP1 ISZERO PUSH2 0x2E3 JUMPI DUP1 PUSH1 0x1F LT PUSH2 0x2BA JUMPI PUSH2 0x100 DUP1 DUP4 SLOAD DIV MUL DUP4 MSTORE SWAP2 PUSH1 0x20 ADD SWAP2 PUSH2 0x2E3 JUMP JUMPDEST DUP3 ADD SWAP2 SWAP1 PUSH0 MSTORE PUSH1 0x20 PUSH0 KECCAK256 SWAP1 JUMPDEST DUP2 SLOAD DUP2 MSTORE SWAP1 PUSH1 0x1 ADD SWAP1 PUSH1 0x20 ADD DUP1 DUP4 GT PUSH2 0x2C6 JUMPI DUP3 SWAP1 SUB PUSH1 0x1F AND DUP3 ADD SWAP2 JUMPDEST POP POP POP POP POP SWAP1 DUP1 PUSH1 0x2 ADD PUSH0 SWAP1 SLOAD SWAP1 PUSH2 0x100 EXP SWAP1 DIV PUSH1 0xFF AND SWAP1 POP DUP4 JUMP JUMPDEST POP JUMP JUMPDEST PUSH0 PUSH20 0xFFFFFFFFFFFFFFFFFFFFFFFFFFFFFFFFFFFFFFFF DUP3 AND SWAP1 POP SWAP2 SWAP1 POP JUMP JUMPDEST PUSH0 PUSH2 0x32B DUP3 PUSH2 0x302 JUMP JUMPDEST SWAP1 POP SWAP2 SWAP1 POP JUMP JUMPDEST PUSH2 0x33B DUP2 PUSH2 0x321 JUMP JUMPDEST DUP3 MSTORE POP POP JUMP JUMPDEST PUSH0 PUSH1 0x20 DUP3 ADD SWAP1 POP PUSH2 0x354 PUSH0 DUP4 ADD DUP5 PUSH2 0x332 JUMP JUMPDEST SWAP3 SWAP2 POP POP JUMP JUMPDEST PUSH0 PUSH1 0x40 MLOAD SWAP1 POP SWAP1 JUMP JUMPDEST PUSH0 DUP1 REVERT JUMPDEST PUSH0 DUP1 REVERT JUMPDEST PUSH0 DUP1 REVERT JUMPDEST PUSH0 DUP1 REVERT JUMPDEST PUSH0 PUSH1 0x1F NOT PUSH1 0x1F DUP4 ADD AND SWAP1 POP SWAP2 SWAP1 POP JUMP JUMPDEST PUSH32 0x4E487B7100000000000000000000000000000000000000000000000000000000 PUSH0 MSTORE PUSH1 0x41 PUSH1 0x4 MSTORE PUSH1 0x24 PUSH0 REVERT JUMPDEST PUSH2 0x3B9 DUP3 PUSH2 0x373 JUMP JUMPDEST DUP2 ADD DUP2 DUP2 LT PUSH8 0xFFFFFFFFFFFFFFFF DUP3 GT OR ISZERO PUSH2 0x3D8 JUMPI PUSH2 0x3D7 PUSH2 0x383 JUMP JUMPDEST JUMPDEST DUP1 PUSH1 0x40 MSTORE POP POP POP JUMP JUMPDEST PUSH0 PUSH2 0x3EA PUSH2 0x35A JUMP JUMPDEST SWAP1 POP PUSH2 0x3F6 DUP3 DUP3 PUSH2 0x3B0 JUMP JUMPDEST SWAP2 SWAP1 POP JUMP JUMPDEST PUSH0 PUSH8 0xFFFFFFFFFFFFFFFF DUP3 GT ISZERO PUSH2 0x415 JUMPI PUSH2 0x414 PUSH2 0x383 JUMP JUMPDEST JUMPDEST PUSH2 0x41E DUP3 PUSH2 0x373 JUMP JUMPDEST SWAP1 POP PUSH1 0x20 DUP2 ADD SWAP1 POP SWAP2 SWAP1 POP JUMP JUMPDEST DUP3 DUP2 DUP4 CALLDATACOPY PUSH0 DUP4 DUP4 ADD MSTORE POP POP POP JUMP JUMPDEST PUSH0 PUSH2 0x44B PUSH2 0x446 DUP5 PUSH2 0x3FB JUMP JUMPDEST PUSH2 0x3E1 JUMP JUMPDEST SWAP1 POP DUP3 DUP2 MSTORE PUSH1 0x20 DUP2 ADD DUP5 DUP5 DUP5 ADD GT ISZERO PUSH2 0x467 JUMPI PUSH2 0x466 PUSH2 0x36F JUMP JUMPDEST JUMPDEST PUSH2 0x472 DUP5 DUP3 DUP6 PUSH2 0x42B JUMP JUMPDEST POP SWAP4 SWAP3 POP POP POP JUMP JUMPDEST PUSH0 DUP3 PUSH1 0x1F DUP4 ADD SLT PUSH2 0x48E JUMPI PUSH2 0x48D PUSH2 0x36B JUMP JUMPDEST JUMPDEST DUP2 CALLDATALOAD PUSH2 0x49E DUP5 DUP3 PUSH1 0x20 DUP7 ADD PUSH2 0x439 JUMP JUMPDEST SWAP2 POP POP SWAP3 SWAP2 POP POP JUMP JUMPDEST PUSH0 PUSH1 0x20 DUP3 DUP5 SUB SLT ISZERO PUSH2 0x4BC JUMPI PUSH2 0x4BB PUSH2 0x363 JUMP JUMPDEST JUMPDEST PUSH0 DUP3 ADD CALLDATALOAD PUSH8 0xFFFFFFFFFFFFFFFF DUP2 GT ISZERO PUSH2 0x4D9 JUMPI PUSH2 0x4D8 PUSH2 0x367 JUMP JUMPDEST JUMPDEST PUSH2 0x4E5 DUP5 DUP3 DUP6 ADD PUSH2 0x47A JUMP JUMPDEST SWAP2 POP POP SWAP3 SWAP2 POP POP JUMP JUMPDEST PUSH2 0x4F7 DUP2 PUSH2 0x321 JUMP JUMPDEST DUP2 EQ PUSH2 0x501 JUMPI PUSH0 DUP1 REVERT JUMPDEST POP JUMP JUMPDEST PUSH0 DUP2 CALLDATALOAD SWAP1 POP PUSH2 0x512 DUP2 PUSH2 0x4EE JUMP JUMPDEST SWAP3 SWAP2 POP POP JUMP JUMPDEST PUSH0 PUSH1 0x20 DUP3 DUP5 SUB SLT ISZERO PUSH2 0x52D JUMPI PUSH2 0x52C PUSH2 0x363 JUMP JUMPDEST JUMPDEST PUSH0 PUSH2 0x53A DUP5 DUP3 DUP6 ADD PUSH2 0x504 JUMP JUMPDEST SWAP2 POP POP SWAP3 SWAP2 POP POP JUMP JUMPDEST PUSH0 DUP2 MLOAD SWAP1 POP SWAP2 SWAP1 POP JUMP JUMPDEST PUSH0 DUP3 DUP3 MSTORE PUSH1 0x20 DUP3 ADD SWAP1 POP SWAP3 SWAP2 POP POP JUMP JUMPDEST PUSH0 JUMPDEST DUP4 DUP2 LT ISZERO PUSH2 0x57A JUMPI DUP1 DUP3 ADD MLOAD DUP2 DUP5 ADD MSTORE PUSH1 0x20 DUP2 ADD SWAP1 POP PUSH2 0x55F JUMP JUMPDEST PUSH0 DUP5 DUP5 ADD MSTORE POP POP POP POP JUMP JUMPDEST PUSH0 PUSH2 0x58F DUP3 PUSH2 0x543 JUMP JUMPDEST PUSH2 0x599 DUP2 DUP6 PUSH2 0x54D JUMP JUMPDEST SWAP4 POP PUSH2 0x5A9 DUP2 DUP6 PUSH1 0x20 DUP7 ADD PUSH2 0x55D JUMP JUMPDEST PUSH2 0x5B2 DUP2 PUSH2 0x373 JUMP JUMPDEST DUP5 ADD SWAP2 POP POP SWAP3 SWAP2 POP POP JUMP JUMPDEST PUSH0 DUP2 ISZERO ISZERO SWAP1 POP SWAP2 SWAP1 POP JUMP JUMPDEST PUSH2 0x5D1 DUP2 PUSH2 0x5BD JUMP JUMPDEST DUP3 MSTORE POP POP JUMP JUMPDEST PUSH0 PUSH1 0x60 DUP3 ADD SWAP1 POP PUSH2 0x5EA PUSH0 DUP4 ADD DUP7 PUSH2 0x332 JUMP JUMPDEST DUP2 DUP2 SUB PUSH1 0x20 DUP4 ADD MSTORE PUSH2 0x5FC DUP2 DUP6 PUSH2 0x585 JUMP JUMPDEST SWAP1 POP PUSH2 0x60B PUSH1 0x40 DUP4 ADD DUP5 PUSH2 0x5C8 JUMP JUMPDEST SWAP5 SWAP4 POP POP POP POP JUMP JUMPDEST PUSH32 0x4E487B7100000000000000000000000000000000000000000000000000000000 PUSH0 MSTORE PUSH1 0x22 PUSH1 0x4 MSTORE PUSH1 0x24 PUSH0 REVERT JUMPDEST PUSH0 PUSH1 0x2 DUP3 DIV SWAP1 POP PUSH1 0x1 DUP3 AND DUP1 PUSH2 0x657 JUMPI PUSH1 0x7F DUP3 AND SWAP2 POP JUMPDEST PUSH1 0x20 DUP3 LT DUP2 SUB PUSH2 0x66A JUMPI PUSH2 0x669 PUSH2 0x613 JUMP JUMPDEST JUMPDEST POP SWAP2 SWAP1 POP JUMP JUMPDEST PUSH0 DUP2 SWAP1 POP DUP2 PUSH0 MSTORE PUSH1 0x20 PUSH0 KECCAK256 SWAP1 POP SWAP2 SWAP1 POP JUMP JUMPDEST PUSH0 PUSH1 0x20 PUSH1 0x1F DUP4 ADD DIV SWAP1 POP SWAP2 SWAP1 POP JUMP JUMPDEST PUSH0 DUP3 DUP3 SHL SWAP1 POP SWAP3 SWAP2 POP POP JUMP JUMPDEST PUSH0 PUSH1 0x8 DUP4 MUL PUSH2 0x6CC PUSH32 0xFFFFFFFFFFFFFFFFFFFFFFFFFFFFFFFFFFFFFFFFFFFFFFFFFFFFFFFFFFFFFFFF DUP3 PUSH2 0x691 JUMP JUMPDEST PUSH2 0x6D6 DUP7 DUP4 PUSH2 0x691 JUMP JUMPDEST SWAP6 POP DUP1 NOT DUP5 AND SWAP4 POP DUP1 DUP7 AND DUP5 OR SWAP3 POP POP POP SWAP4 SWAP3 POP POP POP JUMP JUMPDEST PUSH0 DUP2 SWAP1 POP SWAP2 SWAP1 POP JUMP JUMPDEST PUSH0 DUP2 SWAP1 POP SWAP2 SWAP1 POP JUMP JUMPDEST PUSH0 PUSH2 0x71A PUSH2 0x715 PUSH2 0x710 DUP5 PUSH2 0x6EE JUMP JUMPDEST PUSH2 0x6F7 JUMP JUMPDEST PUSH2 0x6EE JUMP JUMPDEST SWAP1 POP SWAP2 SWAP1 POP JUMP JUMPDEST PUSH0 DUP2 SWAP1 POP SWAP2 SWAP1 POP JUMP JUMPDEST PUSH2 0x733 DUP4 PUSH2 0x700 JUMP JUMPDEST PUSH2 0x747 PUSH2 0x73F DUP3 PUSH2 0x721 JUMP JUMPDEST DUP5 DUP5 SLOAD PUSH2 0x69D JUMP JUMPDEST DUP3 SSTORE POP POP POP POP JUMP JUMPDEST PUSH0 SWAP1 JUMP JUMPDEST PUSH2 0x75B PUSH2 0x74F JUMP JUMPDEST PUSH2 0x766 DUP2 DUP5 DUP5 PUSH2 0x72A JUMP JUMPDEST POP POP POP JUMP JUMPDEST JUMPDEST DUP2 DUP2 LT ISZERO PUSH2 0x789 JUMPI PUSH2 0x77E PUSH0 DUP3 PUSH2 0x753 JUMP JUMPDEST PUSH1 0x1 DUP2 ADD SWAP1 POP PUSH2 0x76C JUMP JUMPDEST POP POP JUMP JUMPDEST PUSH1 0x1F DUP3 GT ISZERO PUSH2 0x7CE JUMPI PUSH2 0x79F DUP2 PUSH2 0x670 JUMP JUMPDEST PUSH2 0x7A8 DUP5 PUSH2 0x682 JUMP JUMPDEST DUP2 ADD PUSH1 0x20 DUP6 LT ISZERO PUSH2 0x7B7 JUMPI DUP2 SWAP1 POP JUMPDEST PUSH2 0x7CB PUSH2 0x7C3 DUP6 PUSH2 0x682 JUMP JUMPDEST DUP4 ADD DUP3 PUSH2 0x76B JUMP JUMPDEST POP POP JUMPDEST POP POP POP JUMP JUMPDEST PUSH0 DUP3 DUP3 SHR SWAP1 POP SWAP3 SWAP2 POP POP JUMP JUMPDEST PUSH0 PUSH2 0x7EE PUSH0 NOT DUP5 PUSH1 0x8 MUL PUSH2 0x7D3 JUMP JUMPDEST NOT DUP1 DUP4 AND SWAP2 POP POP SWAP3 SWAP2 POP POP JUMP JUMPDEST PUSH0 PUSH2 0x806 DUP4 DUP4 PUSH2 0x7DF JUMP JUMPDEST SWAP2 POP DUP3 PUSH1 0x2 MUL DUP3 OR SWAP1 POP SWAP3 SWAP2 POP POP JUMP JUMPDEST PUSH2 0x81F DUP3 PUSH2 0x543 JUMP JUMPDEST PUSH8 0xFFFFFFFFFFFFFFFF DUP2 GT ISZERO PUSH2 0x838 JUMPI PUSH2 0x837 PUSH2 0x383 JUMP JUMPDEST JUMPDEST PUSH2 0x842 DUP3 SLOAD PUSH2 0x640 JUMP JUMPDEST PUSH2 0x84D DUP3 DUP3 DUP6 PUSH2 0x78D JUMP JUMPDEST PUSH0 PUSH1 0x20 SWAP1 POP PUSH1 0x1F DUP4 GT PUSH1 0x1 DUP2 EQ PUSH2 0x87E JUMPI PUSH0 DUP5 ISZERO PUSH2 0x86C JUMPI DUP3 DUP8 ADD MLOAD SWAP1 POP JUMPDEST PUSH2 0x876 DUP6 DUP3 PUSH2 0x7FB JUMP JUMPDEST DUP7 SSTORE POP PUSH2 0x8DD JUMP JUMPDEST PUSH1 0x1F NOT DUP5 AND PUSH2 0x88C DUP7 PUSH2 0x670 JUMP JUMPDEST PUSH0 JUMPDEST DUP3 DUP2 LT ISZERO PUSH2 0x8B3 JUMPI DUP5 DUP10 ADD MLOAD DUP3 SSTORE PUSH1 0x1 DUP3 ADD SWAP2 POP PUSH1 0x20 DUP6 ADD SWAP5 POP PUSH1 0x20 DUP2 ADD SWAP1 POP PUSH2 0x88E JUMP JUMPDEST DUP7 DUP4 LT ISZERO PUSH2 0x8D0 JUMPI DUP5 DUP10 ADD MLOAD PUSH2 0x8CC PUSH1 0x1F DUP10 AND DUP3 PUSH2 0x7DF JUMP JUMPDEST DUP4 SSTORE POP JUMPDEST PUSH1 0x1 PUSH1 0x2 DUP9 MUL ADD DUP9 SSTORE POP POP POP JUMPDEST POP POP POP POP POP POP JUMP INVALID LOG2 PUSH5 0x6970667358 0x22 SLT KECCAK256 SWAP16 0x2E AND PUSH6 0x909B520298BB 0x29 PUSH8 0x3B7310EA611935E1 SLOAD 0xB9 SWAP8 PUSH3 0x3605A4 0x24 EXP PC BYTE PUSH17 0x64736F6C63430008160033000000000000 "
		},
		"gasEstimates": {
			"creation": {
				"codeDepositCost": "466200",
				"executionCost": "497",
				"totalCost": "466697"
			},
			"external": {
				"getShopName(address)": "493",
				"registerShop(string)": "infinite",
				"shopOwner()": "2483",
				"shopkeepers(address)": "infinite"
			}
		},
		"methodIdentifiers": {
			"getShopName(address)": "d0d0f10d",
			"registerShop(string)": "7316bdcd",
			"shopOwner()": "052cbab6",
			"shopkeepers(address)": "bca98e77"
		}
	},
	"abi": [
		{
			"inputs": [
				{
					"internalType": "address",
					"name": "_owner",
					"type": "address"
				}
			],
			"name": "getShopName",
			"outputs": [],
			"stateMutability": "nonpayable",
			"type": "function"
		},
		{
			"inputs": [
				{
					"internalType": "string",
					"name": "_shopName",
					"type": "string"
				}
			],
			"name": "registerShop",
			"outputs": [],
			"stateMutability": "nonpayable",
			"type": "function"
		},
		{
			"inputs": [],
			"name": "shopOwner",
			"outputs": [
				{
					"internalType": "address",
					"name": "",
					"type": "address"
				}
			],
			"stateMutability": "view",
			"type": "function"
		},
		{
			"inputs": [
				{
					"internalType": "address",
					"name": "",
					"type": "address"
				}
			],
			"name": "shopkeepers",
			"outputs": [
				{
					"internalType": "address",
					"name": "walletAddress",
					"type": "address"
				},
				{
					"internalType": "string",
					"name": "shopName",
					"type": "string"
				},
				{
					"internalType": "bool",
					"name": "isRegistered",
					"type": "bool"
				}
			],
			"stateMutability": "view",
			"type": "function"
		}
	]
}